:02000000AB282B
:10000600710DF80DF90D7408F8027508031C750FCB
:10001600F902F00DF10D0F30FC00710DF80DF90D20
:100026007408701C1C28F8027508031C750FF90269
:100036002128F80775080318750FF907F00DF10D5B
:10004600FC0B102870182D287408F807750803187B
:08005600750FF9070000080016
:0E005E00831203132F088A002E088200080068
:10006C002F208A110A128000840AAE0A0319AF0AE3
:08007C00F003031D3628080003
:10008400831203137408003A031D51287508003ABB
:10009400031D5128FF30F0007F30F100AA2883129D
:1000A4000313FD01F901F801710870040319003408
:1000B40071087506FA00FA1BFD09FB01F51F672894
:1000C400F409F509F40A0319F50AF11F6E28F00979
:1000D400F109F00A0319F10A71087504FA00FA1B10
:1000E400832803207B189628FD1F0034F009F109AA
:1000F400F00A0319F10AF809F909F80A0319F90AC7
:100104000034F51F9228F11B8E287108F90070083D
:10011400F800F101F0017628F101F001F00A003451
:10012400F109F009FB0A7328F80A0319F90A74089B
:100134007802031D762875087902031D7628F901D3
:10014400F801F00A0319F10AF11F76280000FF34C0
:020154000800A1
:1001560083120313A001A101A201A3013F30A40051
:100166000630A5005B30A6004F30A7006630A80019
:100176006D30A9007D30AA000730AB007F30AC009F
:100186006F30AD00831686018801FF308700831229
:1001960086018801A201A30180302306F000803089
:1001A6007002031DD8280130220203188029E83086
:1001B600F4000330F5002008F0002108F100422089
:1001C6007008243E84000008860008100330FC00F6
:1001D6009730FD00FD0BED28FC0BED28000000001C
:1001E6000814E830F4000330F5002008F000210878
:1001F600F10042207808F0007908F1006430F4003C
:100206000030F50042207008243E84000008860075
:1002160088100330FC009730FD00FD0B1029FC0B05
:100226001029000000008814E830F4000330F500BF
:100236002008F0002108F10042207808F000790833
:10024600F1006430F4000030F50042207808F00038
:100256007908F1000A30F4000030F50042207008F9
:10026600243E84000008860008110330FC00973005
:10027600FD00FD0B3C29FC0B3C2900000000081585
:10028600E830F4000330F5002008F0002108F10002
:1002960042207808F0007908F1006430F40000305C
:1002A600F50042207808F0007908F1000A30F400E1
:1002B6000030F50042207808F0007908F1000A3095
:1002C600F4000030F50042207808F0007908F100CB
:1002D6007008243E84000008860088110330FC0064
:1002E6009730FD00FD0B7529FC0B752900000000F9
:1002F6008815A20A0319A30ACF28A00A0319A10A7E
:1003060080302106F00080307002031D8C290030F9
:100316002002031C9B298030273AF00080302106FA
:100326007002031D982920080F3C031C9B299D2958
:08033600A001A101CD289E29C0
:02400E004A2F37
:00000001FF
