:020000005D2D74
:06000600000000000800EC
:0E000C00213083120313FD00FD0B0A280800AB
:10001A000F3083120313FC004730FD00FD0B132839
:0A002A00FC0B132800000000080082
:10003400FB14FB1F2428FF30F300F200F100F00052
:08004400FA0DF20CFF30080078
:0E004C00F201F101F001F801F30100300800AB
:10005A007B15FB1F37280130F300F201F101F00193
:08006A00FA0DF20CFF30080052
:08007200FA1FF2130030080030
:10007A0083120313DD1B43288612442886165D1B50
:10008A004828061249280616DD1A4D2886114E28D8
:10009A0086155D1A52280611532806154118572845
:1000AA00061458280610861403208610DD195F28C6
:1000BA008612602886165D196428061265280616B7
:1000CA00DD18692886116A2886155D186E280611BA
:1000DA006F2806154118732806147428061086140A
:1000EA0003208610411C7B280D207C28062008004E
:1000FA00A0017208031D92287108F2007008F1002D
:10010A00F001A0157208031D92287108F200F1018E
:10011A00A011201672080319A0282008F302031D53
:10012A00031CA4280310F21BA828F00DF10DF20DF0
:10013A00F30B9828A4280130FC002620AB280230B3
:0E014A00FC002D20AB280430FC0039200800FA
:100158000E3083120313FD00FD0BB02800000800C9
:0E0168008312031345088A0044088200080031
:06017600FB15FF3008003C
:10017C00831203135B08F2007208F100F20A5C08A8
:10018C00F000DC0A700884000008F000710884009C
:10019C00700880007108840000080319D628C22852
:0601AC005B08F0000800F2
:1001B20083120313FA017308031D7A147708031DCF
:1001C200FA147A0803192529033A0319F0287A1830
:1001D200ED28F61F23292129F21F2129232972083C
:1001E2008039FA00F21376088039F6137A06031979
:1001F200FE287A0803192129232977087302031993
:100202000529031C19291D297608720203190C29D4
:10021200031C19291D297508710203191329031CCE
:1002220019291D29740870020319252903181D298B
:10023200FA08031923292129FA0803192129232954
:100242000314080003100800031403150800080033
:1002520083120313FB017308031D77080319802916
:1002620072087606FA007708F3077E30031C3D29F0
:10027200F302031883294029F302031C862972081A
:10028200F8007108FC007008FD00F817F61703105B
:10029200F201F101F0011830A0007D1C5A29740806
:1002A200F00775080318750FF10776080318760F23
:1002B200F207F20CF10CF00CF80CFC0CFD0C031024
:1002C200A00B4E29F21B6A29F80DF00DF10DF20D6B
:1002D200F3037B1B701C7C29F81F7C29F00A03198D
:1002E200F10A0319F20A031D7C29F20CF10CF00C3D
:1002F200F30A03198329FA1FF21300308829013007
:100302002620882902301A20882904302D20000056
:020312000800E1
:1003140083120313F8010830FC00700DF80D740803
:10032400F80203189729F8070310F00DFC0B8F2926
:020334000800BF
:100336008312031341105B08DD003D2041140800C1
:10034600B529803083120313CE00C829C030CE00F1
:10035600C8299430CE00C829D430CE00C8298030B0
:10036600CE00C829831203134E08013A0319A429A3
:100376004E08023A0319A9294E08033A0319AC2973
:100386004E08043A0319AF29B2294F03F0004E086C
:10039600F0077008CE007008DD003D204110D10145
:1003A60051085007840000080319E1295108500735
:1003B60084000008DB009B21D10AD32941140800E0
:1003C600831203137408003A031DFE297508003AC8
:1003D600031DFE297608003A031DFE297708003A18
:1003E600031DFE29FF30F000FF30F1007F30F200E0
:1003F600FF30F300992A83120313770803198D2A15
:1004060073080319902A720876068039FA00F217E3
:10041600F617A0017208F8007108FC007008FD00CC
:100426007408FD027508031C750FFC027608031C90
:10043600760FF802F801FC01FD01031C292A0310BE
:10044600F20CF10CF00CF80C0130A0007708F30266
:10045600031C332A7E302007F3070318932A382A11
:100466007E302007F307031C962A1830FA07FD0D85
:10047600FC0DF80DF00DF10DF20DA00D7408F00253
:100486007508031C750FF1027608031C760FF2023D
:10049600760DA004201C512A7D145C2A7408F007EE
:1004A60075080318750FF10776080318760AF20720
:1004B6007D10FA031F307A05031D3A2A7B1B7D1C2B
:1004C600832A0310F00DF10DF20DA00D7408F00251
:1004D6007508031C750FF1027608031C760FF202ED
:1004E600760D20040139FD070318FC0A0319F80AE2
:1004F600031D832AF80CFC0CFD0CF30A0319932A3E
:10050600FA1FF8137808F2007C08F1007D08F00065
:100516000030982A0130BB20982A02302620982ADB
:0E05260004301A20982A08302D20000008000A
:1005340083120313D901DA014E08D5004F08D600FF
:100544005008D7005108D8005808FF3A031DB42AB0
:100554005708FF3A031DB42A5608FF3A031DB42A6C
:100564005508FF3A031DBE2A5208DB002130DC0087
:10057400BE200330F000932C0130D300D71FCD2AC6
:1005840080305706F0007008D700D30A5208840060
:100594002D308000D20A0030F0005806031DDC2AFA
:1005A40070085706031DDC2A70085606031DDC2A52
:1005B4005508003A031DE52A5208DB003530DC00FB
:1005C400BE20F001932C5808FF3A031DF32A570864
:1005D400003A031DF32A5608003A031DF32A55086E
:1005E400003A031DFD2A5208DB003730DC00BE2030
:1005F4005308F000932C0030F4000030F500003074
:10060400F6007F30F7005508F0005608F10057084F
:10061400F2005808F300D920013003180030F0002C
:1006240070080319302B5508F0005608F1005708DC
:10063400F2005808F3000030F4000030F5002030D8
:10064400F6008230F70029217008D5007108D60021
:100654007208D7007308D800DA03FD2A0030F400CA
:100664000030F5002030F6008230F7005508F00025
:100674005608F1005708F2005808F300D920013059
:10068400031C0030F00070080319632B5508F000B8
:100694005608F1005708F2005808F300CD30F40072
:1006A400CC30F5004C30F6007B30F700292170087F
:1006B400D5007108D6007208D7007308D800DA0A8A
:1006C400302BFF305505F800FF305605F9007F3018
:1006D4005705FA0000305805FB007808F400790843
:1006E400F5007A08F6007B08F700F40DF50DF60D19
:1006F400F70D741000305505F00000305605F10078
:1007040000305705F200FF305805F3007008D5009B
:100714007108D6007208D7007308D800740855040D
:10072400F00075085604F10076085704F2007708C3
:100734005804F3007008D5007108D6007208D70079
:100744007308D8007F305802F0007008D4000130DC
:10075400D8007008F4005508F0005608F100570856
:10076400F2005808F30074080319BF2BF00DF10DC3
:10077400F20DF30D7010FF3EB62B7008D500710812
:10078400D6007208D7007308D8005808303EF0002D
:100794005208840070088000D20A80305A06F000A3
:1007A4008030013A7002031CE02B8030063AF000DE
:1007B40080305A067002031CE02BE72B5208840099
:1007C4002E308000D20A0130D9000630D4005408FB
:1007D400003A0319452CD8015508F0005608F100D9
:1007E4005708F2005808F300F00DF10DF20DF30D67
:1007F4007010F00DF10DF20DF30D70105508F007A7
:1008040056080318560FF10757080318570FF20735
:1008140058080318580FF3077008D5007108D6005C
:100824007208D7007308D8005508F0005608F10084
:100834005708F2005808F300F00DF10DF20DF30D16
:1008440070107008D5007108D6007208D7007308BC
:10085400D8005808303EF000520884007008800028
:10086400D20A5908003A031D432CDA035A08003A05
:10087400031D432C520884002E308000D20A01301C
:10088400D900D403E92BFF30520784000008303A22
:10089400031D4E2CD203452CFF3052078400000860
:1008A4002E3A031D562CD2035A08003A03198F2CF2
:1008B4005208840065308000D20A80305A06F00065
:1008C4008030003A700203186F2C520884002D30D7
:1008D4008000D20A5A08003CDA005A08D4005A08A8
:1008E400093C0318812C0A30F4005408F0008A21D2
:1008F4003030F0075208840070088000D20A0A30B1
:10090400F4005408F0008A217808F0003030F00731
:100914005208840070088000D20A520884008001C2
:04092400F0010800D6
:10092800831203137008F8007108F000F101F20156
:10093800F301FB01FC019630F300FA017008F100A5
:0C0948007808F000F801F2017D200800A2
:10095400B4208A110A128000840AC40A0319C50A41
:08096400F003031DAA2C08009A
:10096C00831203139F01C0309F0483161F179F1718
:10097C0083124E08F000F00D7010F00D7010F00D99
:10098C00701070089F041F14AC201F151F1DD02C55
:10099C000000CC2C1F101E08F100F00183161E085D
:0809AC00F0040030F104080022
:1009B400831603138610061006118611061286127A
:1009C40083128610061086120612861106110D2057
:1009D4000D200D20861506158614032086100D2083
:1009E4008614032086100D208614032086100D2003
:1009F40006118614032086100D2086140320861009
:100A0400861186168614032086100D20861206157C
:100A140086140320861006118614032086100D20E8
:100A240086140320861006158614032086100D20D4
:100A340006118614032086108616061686150615DA
:0C0A44008614032086100D2041140800C9
:100A50003A2D803083120313CE004D2DC030CE00CE
:100A60004D2D9430CE004D2DD430CE004D2D803004
:100A7000CE004D2D831203134E08013A0319292D80
:100A80004E08023A03192E2D4E08033A0319312D50
:100A90004E08043A0319342D372D4F03F0004E0849
:100AA000F0077008CE0041147008DD003D204110B1
:0A0AB0005008DD003D20411408004D
:100ABA00E425831603138601FF308500DA2401300A
:100ACA00DD003D200C30DD003D20CE01B62470084B
:100ADA008312C2007108C3009424F630F40028304F
:100AEA00F5001C30F6008130F70029217008C60095
:100AFA007108C7007208C8007308C9000030F40002
:100B0A000030F5002030F6008230F700E32170084B
:100B1A00CA007108CB007208CC007308CD000130FE
:100B2A00CE000130CF003B30D000A3214A08CE00CE
:100B3A004B08CF004C08D0004D08D1002530D20018
:100B4A009A220130CE000630CF002530D000A321F2
:100B5A000130CE000F30CF00DF30D0002825013021
:100B6A00CE001030CF00E230D00028256A2DBC2DEF
:100BC80021308400203083120313F000C230C400A7
:080BD8000530C500AA24080045
:080B84004E3461344E3400349C
:100B8C0000340034003400340034003400340034B9
:100B9C0000340034003400340034003400340034A9
:040BAC0030340034AD
:080BB00049344E344634003490
:0C0BB800543465346D3470343D34003426
:040BC4004334003482
:02400E004A2F37
:00000001FF
