:0200000087284F
:0E0006008312031321088A00200882000800DC
:1000140083120313F101F20100307202031D14284C
:100024003230710203182F2806140530FC008A3080
:10003400FD00FD0B1B28FC0B1B28000006103230B2
:10004400FC00DD30FD00FD0B2528FC0B25280000FD
:0C0054000000F10A0319F20A0E2808004F
:1000600083120313F101F20100307202031D3A28DA
:10007000323071020318542806140430FC00E430B6
:10008000FD00FD0B4128FC0B412800000610173035
:10009000FC001230FD00FD0B4B28FC0B4B28000030
:0A00A000F10A0319F20A34280800DF
:1000AA0083120313F101F20100307202031D5F286B
:1000BA003230710203187A2806140630FC00B53073
:1000CA00FD00FD0B6628FC0B6628000000000610E8
:1000DA002F30FC003A30FD00FD0B7128FC0B712813
:0C00EA000000F10A0319F20A592808006E
:1000F60003208A110A128000840AA00A0319A10AA1
:08010600F003031D7B28080033
:10010E008316031386010A201530FB004B30FC00CA
:10011E00BE30FD00FD0B9128FC0B9128FB0B9128A6
:10012E00000030201530FB004B30FC00BE30FD00CF
:10013E00FD0B9F28FC0B9F28FB0B9F2800005520D2
:10014E001530FB004B30FC00BE30FD00FD0BAD2822
:0E015E00FC0BAD28FB0BAD2800008A28B5284D
:02400E004A2F37
:00000001FF
