:020000001628C0
:0E0006008312031331088A00300882000800BC
:1000140003208A110A128000840AB00A0319B10A63
:08002400F003031D0A28080087
:10002C00103083120313A0001030A100FF30A20087
:10003C00FF30A300FF30A400A501A601A70180306A
:10004C00A8004030A9002030AA001030AB000830C6
:10005C00AC000430AD000230AE000130AF008316AE
:10006C00860188018312B201B30180303306F0009F
:10007C0080307002031D44280830320203185E28B9
:10008C003208283E8400000888003208203E840094
:10009C00000886000330FC009730FD00FD0B54284F
:1000AC00FC0B542800000000B20A0319B30A3B28C9
:0400BC0038285F2859
:02400E004A2F37
:00000001FF
