:020000001628C0
:0E0006008312031339088A00380882000800AC
:1000140003208A110A128000840AB80A0319B90A53
:08002400F003031D0A28080087
:10002C0083120313A001A1013C30A200A3012030D4
:10003C00A400A5012030A600A7013C30A800A9010E
:10004C002030AA00AB012030AC00AD013C30AE003A
:10005C00AF018030B0004030B1002030B200103021
:10006C00B3000830B4000430B5000230B6000130E3
:10007C00B7008316860188018312BA01BB01803058
:10008C003B06F00080307002031D4E2808303A0207
:10009C0003189E28BC01BD0180303D06F000803065
:1000AC007002031D5B281E303C0203189A28BE0107
:1000BC00BF0180303F06F00080307002031D6828BD
:1000CC0008303E02031896283E08303E8400000893
:1000DC0088003E08F0003F08F100F00DF10D7010A3
:1000EC007008203E84000008F2003A08F100720803
:1000FC00F000710803198628F00D7010FF3E80285F
:10010C00700886000330FC009730FD00FD0B8C2836
:10011C00FC0B8C2800000000BE0A0319BF0A5F28E4
:10012C00BC0A0319BD0A5228BA0A0319BB0A45288E
:10013C004E30FC00EB30FD00FD0BA228FC0BA2287E
:04014C004228A72876
:02400E004A2F37
:00000001FF
