:0200000089284D
:1000060083120313FB01FA01F9018030F800F10CA9
:10001600F00C031C17287408F90775080318750FE8
:10002600FA070318FB0A0310F01F1F287408FA07C3
:1000360075080318750FFB07FB0CFA0CF90CF80C86
:10004600031C0A287B08F3007A08F2007908F100FD
:060056007808F00008002C
:0E005C008312031323088A0022088200080082
:0C006A008312031395011712971208006F
:100076002E208A110A128000840AA20A0319A30AF2
:08008600F003031D3B280800F4
:10008E00831603131208013EF000F1010318F10A62
:10009E0083122408F400F50103200630F2007008E4
:1000AE00F4007108F500720803196228F50CF40CBF
:1000BE00F513FF3E5B280430F1007408F000710860
:1000CE0003196D28F00D7010FF3E67283030700553
:1000DE00F3007408F0007508F100F10CF00CF11348
:1000EE00F10CF00CF113700895000F3097057308A2
:0400FE00970408005B
:10010200831603130711831212150C30970408008B
:1001120083120313A001A101FF3083168800860118
:10012200831206148610121492147C3083169200E5
:10013200352081202008A4004720081CD3288030C5
:100142002106F00080307002031DA928FA30200237
:100152000318D3280230FB000430FC00BA30FD0043
:10016200FD0BB128FC0BB128FB0BB1280000081CC9
:10017200D32880302106F00080307002031DC3288E
:10018200FA3020020318D3280A302007F000210891
:100192000318013EF1007008A0007108A100700868
:1001A200A4004720081C09298030F0008030210675
:1001B2007002031DDE282008003C031809290230C2
:1001C200FB000430FC00BA30FD00FD0BE628FC0BFE
:1001D200E628FB0BE6280000081C09298030F00005
:1001E200803021067002031DF8282008003C031805
:1001F20009290A302002F0000030031C013E2102CE
:10020200F1007008A0007108A1007008A400472046
:100212001A30FC00F830FD00FD0B0D29FC0B0D29F6
:0602220000009E281329D4
:02400E004A2F37
:00000001FF
