:02000000432893
:0E0006008312031322088A00210882000800DA
:1000140003208A110A128000840AA10A0319A20A81
:08002400F003031D0A28080087
:10002C0083120313240803178D0083168C130C14EE
:08003C0083120C08F00008001B
:10004400831603178C1C282800002228831203130C
:10005400240803178D000313250803178C00831647
:100064008C130C150B08F0008B1355308D00AA303F
:100074008D008C14F01B40288B1341288B170C1116
:02008400080072
:1000860083120313A00183168601FF3088008312B2
:10009600081C6E280330FB000830FC007730FD009A
:1000A600FD0B5328FC0B5328FB0B5328081C6E280A
:1000B6002008003A031D67280130A0000130A40083
:1000C6000130A50022206E2883120313A0010130FF
:1000D600A400A50122208230FC00DD30FD00FD0BCE
:1000E6007228FC0B722800000000013083120313F3
:1000F600A400162070080313A3007008003A031D1D
:0C01060086280610872806144A2888283E
:02400E004A2F37
:00000001FF
