:02000000AB282B
:10000600710DF80DF90D7408F8027508031C750FCB
:10001600F902F00DF10D0F30FC00710DF80DF90D20
:100026007408701C1C28F8027508031C750FF90269
:100036002128F80775080318750FF907F00DF10D5B
:10004600FC0B102870182D287408F807750803187B
:08005600750FF9070000080016
:0E005E00831203132F088A002E088200080068
:10006C002F208A110A128000840AAE0A0319AF0AE3
:08007C00F003031D3628080003
:10008400831203137408003A031D51287508003ABB
:10009400031D5128FF30F0007F30F100AA2883129D
:1000A4000313FD01F901F801710870040319003408
:1000B40071087506FA00FA1BFD09FB01F51F672894
:1000C400F409F509F40A0319F50AF11F6E28F00979
:1000D400F109F00A0319F10A71087504FA00FA1B10
:1000E400832803207B189628FD1F0034F009F109AA
:1000F400F00A0319F10AF809F909F80A0319F90AC7
:100104000034F51F9228F11B8E287108F90070083D
:10011400F800F101F0017628F101F001F00A003451
:10012400F109F009FB0A7328F80A0319F90A74089B
:100134007802031D762875087902031D7628F901D3
:10014400F801F00A0319F10AF11F76280000FF34C0
:020154000800A1
:1001560083120313A001A1013F30A2000630A300C1
:100166005B30A4004F30A5006630A6006D30A700B6
:100176007D30A8000730A9007F30AA006F30AB00A1
:10018600AC01AD01831686018801FF30870083121A
:1001960086018701A001A10180302106F000803090
:1001A6007002031DD82819302002031816290A30B8
:1001B600F4000030F5002C08F0002D08F100422074
:1001C6007008223E84000008860008100330FC00F8
:1001D6009730FD00FD0BED28FC0BED28000000001C
:1001E60008140A30F4000030F5002C08F0002D0841
:1001F600F10042207808F0007908F1007008223EEC
:1002060084000008860088100330FC009730FD004B
:10021600FD0B0B29FC0B0B29000000008814A00A1B
:100226000319A10ACF28071F2A290230FB00043030
:10023600FC00BA30FD00FD0B1E29FC0B1E29FB0B32
:100246001E290000071F2A29AC0A0319AD0A871FB9
:100256003F290230FB000430FC00BA30FD00FD0BE4
:100266003229FC0B3229FB0B32290000871F3F295C
:100276000130AC02031CAD0380302D06F000803047
:100286007002031D482900302C02031C56298030B9
:10029600F00080302D067002031D53292C08633CA4
:0E02A600031C56295829AC01AD01CD28592959
:02400E004A2F37
:00000001FF
