:020000001628C0
:0E000600831203132B088A002A0882000800C8
:1000140003208A110A128000840AAA0A0319AB0A6F
:08002400F003031D0A28080087
:10002C003F3083120313A0000630A1005B30A20006
:10003C004F30A3006630A4006D30A5007D30A600C3
:10004C000730A7007F30A8006F30A9008316860107
:10005C0083128601AC01AD018030F00080302D069A
:10006C007002031D3B282C080A3C031C54282C0846
:10007C00203E8400000886000630FB001330FC0094
:10008C00AD30FD00FD0B4828FC0B4828FB0B482825
:10009C0000000000AC0A0319AD0A32280830AC008D
:1000AC000030AD008030F00080302D067002031D52
:1000BC0061282C08003C03187B282C08203E840067
:1000CC00000886000630FB001330FC00AD30FD004C
:1000DC00FD0B6E28FC0B6E28FB0B6E28000000003D
:0E00EC000130AC02031CAD03582830287C28DC
:02400E004A2F37
:00000001FF
