:0200000066296F
:1000060083120313F801F9011030FC00710DF80D8D
:10001600F90D7408F8027508031C750FF902031828
:100026001B287408F80775080318750FF9070310DD
:0A003600F00DF10DFC0B0928080085
:100040000E3083120313FD00FD0B2428000008006E
:100050008316031398182E280000282883124508B9
:0400600099000800FB
:1000640083120313C80105304802031840284808C6
:100074004707840020308000C80A3528480847070D
:1000840084008001C80348084707C9000A30F40007
:10009400F5014508F0004608F10003207808F00057
:1000A4007908F1003030F0074908840070088000B6
:1000B4000A30F400F5014508F0004608F100032079
:1000C4007008C5007108C60000307106031D6C2855
:1000D40000307006031D6F287128C80345280800E6
:0E00E4008312031332088A00310882000800DC
:1000F200831603139816903083129800831687177D
:10010200071383128C1E88281A08F0008228080020
:10011200831203139F01C0309F0483161F179F177A
:1001220083123C08F000F00D7010F00D7010F00D0D
:10013200701070089F041F1420201F151F1DA32874
:1001420000009F281F101E08F100F00183161E08F0
:08015200F0040030F104080084
:10015A00FF3083120313B900FF30BA00FF30BB002F
:10016A00FF309F01C0309F0483161F179F17831209
:04017A001F14080046
:10017E00831203133C08F2007208F100F20A3D08E4
:10018E00F000BD0A700884000008F00071088400B9
:10019E00700880007108840000080319D728C3284E
:0601AE003C08F00008000F
:1001B40083120313BE013C0884000008BD003D08FF
:1001C400003A0319EF283D08C5002820BE0A3E085E
:0C01D4003C0784000008BD00E128080082
:1001E00083120313C101C2013C08C3003D08C400CF
:1001F00080303D06F00080307002031D0129003080
:100200003C0203180F290130C1000030C2003C0835
:10021000003CC3003D08031C013EC401C402430866
:10022000C5004408C6003E08C70032200630BF00A3
:100230000030C0004008003C031D20293F08003C5E
:1002400003183B293F083E07F20001303F02F0004F
:100250000030031C013E4002F10070083E0784009C
:100260000008F00072088400700880000130BF02AE
:10027000031CC0031A293E08840020308000410876
:10028000420403195929BF01C0013F083E078400F9
:100290000008203A031D5029BF0A0319C00A452946
:1002A0000130BF02031CC0033F083E0784002D300D
:0402B00080000800C2
:1002B40072208A110A128000840AB10A0319B20A50
:0802C400F003031D5A29080094
:1002CC00413083120313A0006E30A1006130A200F4
:1002DC006C30A3006F30A4006730A5002030A6005E
:1002EC005630A7006130A8006C30A9007530AA0008
:1002FC006530AB002030AC003D30AD002030AE009E
:10030C00AF01B00133308316990018157920AD2058
:10031C00BC01892070088312B3007108B400700806
:10032C00BC007108BD003530BE00F0202030BC0090
:10033C00DA203530BC00DA203530BC003030BD005E
:10034C00BF200D30C50028200B30FB002630FC00F0
:10035C005D30FD00FD0BB029FC0BB029FB0BB02967
:08036C00000000008E29B929F0
:02400E004A2F37
:00000001FF
