:020000001628C0
:0E0006008312031321088A00200882000800DC
:1000140003208A110A128000840AA00A0319A10A83
:08002400F003031D0A28080087
:10002C0083120313A201A30183168601FF308800FB
:10003C008312081C3E280330FB000830FC0077308C
:10004C00FD00FD0B2728FC0B2728FB0B2728081C81
:10005C003E2800302306031D352800302206031DE0
:10006C003C280130A2000030A3003E28A201A301CD
:10007C0000302306031D442800302206031D4828A7
:0A008C000610492806141E284A2811
:02400E004A2F37
:00000001FF
