:0200000088284E
:0E0006008312031321088A00200882000800DC
:1000140083120313F101F20100307202031D14284C
:100024003230710203182F2806140330FC00973075
:10003400FD00FD0B1B28FC0B1B2800000000061014
:100044003230FC005830FD00FD0B2628FC0B26281E
:0C0054000000F10A0319F20A0E2808004F
:1000600083120313F101F20100307202031D3A28DA
:10007000323071020318552806140430FC00E430B5
:10008000FD00FD0B4128FC0B41280000061031301B
:10009000FC000B30FD00FD0B4B28FC0B4B28000037
:0C00A0000000F10A0319F20A34280800DD
:1000AC0083120313F101F20100307202031D602868
:1000BC003230710203187B2806140630FC00B53070
:1000CC00FD00FD0B6728FC0B6728000000000610E4
:1000DC002F30FC003A30FD00FD0B7228FC0B72280F
:0C00EC000000F10A0319F20A5A2808006B
:1000F80003208A110A128000840AA00A0319A10A9F
:08010800F003031D7C28080030
:100110008316031386010A201530FB004B30FC00C8
:10012000BE30FD00FD0B9228FC0B9228FB0B9228A1
:10013000000030201530FB004B30FC00BE30FD00CD
:10014000FD0BA028FC0BA028FB0BA02800005620CC
:100150001530FB004B30FC00BE30FD00FD0BAE281F
:0E016000FC0BAE28FB0BAE2800008B28B62847
:02400E004A2F37
:00000001FF
