:0200000066296F
:1000060083120313F801F9011030FC00710DF80D8D
:10001600F90D7408F8027508031C750FF902031828
:100026001B287408F80775080318750FF9070310DD
:0A003600F00DF10DFC0B0928080085
:100040000E3083120313FD00FD0B2428000008006E
:100050008316031398182E280000282883124808B6
:0400600099000800FB
:1000640083120313CB0105304B02031840284B08BD
:100074004A07840020308000CB0A35284B084A0701
:1000840084008001CB034B084A07CC000A30F400FB
:10009400F5014808F0004908F10003207808F00051
:1000A4007908F1003030F0074C08840070088000B3
:1000B4000A30F400F5014808F0004908F100032073
:1000C4007008C8007108C90000307106031D6C284F
:1000D40000307006031D6F287128CB0345280800E3
:0E00E4008312031335088A00340882000800D6
:1000F200831603139816903083129800831687177D
:10010200071383128C1E88281A08F0008228080020
:10011200831203139F01C0309F0483161F179F177A
:1001220083123F08F000F00D7010F00D7010F00D0A
:10013200701070089F041F1420201F151F1DA32874
:1001420000009F281F101E08F100F00183161E08F0
:08015200F0040030F104080084
:10015A00FF3083120313BC00FF30BD00FF30BE0026
:10016A00FF309F01C0309F0483161F179F17831209
:04017A001F14080046
:10017E00831203133F08F2007208F100F20A4008DE
:10018E00F000C00A700884000008F00071088400B6
:10019E00700880007108840000080319D728C3284E
:0601AE003F08F00008000C
:1001B40083120313C1013F0884000008C0004008F3
:1001C400003A0319EF284008C8002820C10A410852
:0C01D4003F0784000008C000E12808007C
:1001E00083120313C401C5013F08C6004008C700BD
:1001F00080304006F00080307002031D012900307D
:100200003F0203180F290130C4000030C5003F0829
:10021000003CC6004008031C013EC701C702460857
:10022000C8004708C9004108CA0032200630C20091
:100230000030C3004308003C031D20294208003C55
:1002400003183B2942084107F20001304202F00046
:100250000030031C013E4302F10070084107840096
:100260000008F00072088400700880000130C202AB
:10027000031CC3031A29410884002030800044086D
:10028000450403195929C201C301420841078400EA
:100290000008203A031D5029C20A0319C30A452940
:1002A0000130C202031CC3034208410784002D3001
:0402B00080000800C2
:1002B40072208A110A128000840AB40A0319B50A4A
:0802C400F003031D5A29080094
:1002CC00413083120313A0006E30A1006130A200F4
:1002DC006C30A3006F30A4006730A5002030A6005E
:1002EC005630A7006130A8006C30A9007530AA0008
:1002FC006530AB002030AC006930AD007330AE001F
:10030C002030AF003D30B0002030B100B201B3015D
:10031C0033308316990018157920AD20BF01892040
:10032C0070088312B6007108B7007008BF0071081E
:10033C00C0003830C100F0202030BF00DA20383047
:10034C00BF00DA203830BF003330C000BF200D3082
:10035C00C80028200630FB001330FC00AD30FD0037
:10036C00FD0BB629FC0BB629FB0BB62900000000CF
:04037C009429BF29D8
:02400E004A2F37
:00000001FF
