:020000001628C0
:0E000600831203132A088A00290882000800CA
:1000140003208A110A128000840AA90A0319AA0A71
:08002400F003031D0A28080087
:10002C00073083120313A0000330A1000230A2009A
:10003C000630A3000430A4000C30A5000830A60044
:10004C000930A700A801831686010F3083128600A1
:10005C002808203E8400000886000630FB00133080
:10006C00FC00AD30FD00FD0B3928FC0B3928FB0BD7
:10007C00392800000000A80A2808073C0318472864
:06008C00A8012E284828FF
:02400E004A2F37
:00000001FF
