:020000001628C0
:0E0006008316031329088A00280882000800C8
:1000140003208A110A128000840AA80A0319A90A73
:08002400F003031D0A28080087
:10002C0004218316031386018801AA01AB018030D9
:10003C002B06F00080307002031D262805302A02A2
:10004C000318A428AC01AD0180302D06F0008030DF
:10005C007002031D332808302C0203189828AE01B7
:10006C00AF0180302F06F00080307002031D402855
:10007C0050302E0203189428B001B10180303106A3
:10008C00F00080307002031D4D2808303002031838
:10009C0090283008A03E84000008831288000430A9
:1000AC00F20083162A08F0002B08F10072080319DD
:1000BC006428F00DF10D7010FF3E5D287008203E95
:1000CC00F3003008F0003108F100F00DF10D701064
:1000DC007008730784000008F2002C08F100720805
:1000EC00F000710803197E28F00D7010FF3E78287F
:1000FC007008831286000330FC009730FD00FD0B66
:10010C008528FC0B8528000000008316B00A031913
:10011C00B10A4428AE0A0319AF0A3728AC0A0319EE
:10012C00AD0A2A284E30FC00EB30FD00FD0B9C285C
:10013C00FC0B9C28AA0A0319AB0A1D281B28A5280E
:1002080020308400503083120313F000AB30831683
:10021800A8000030A9000A20A03084000830031389
:10022800F000FB308316A8000030A9000A2008005F
:100156001834003424340034423400347E340034FD
:1001660042340034423400344234003442340034E1
:10017600F03400348834003488340034F0340034E9
:100186008834003488340034F034003400340034C9
:1001960038340034443400344034003440340034BD
:1001A60040340034443400343834003400340034ED
:1001B6007834003444340034443400344434003455
:1001C6004434003444340034443400347834003445
:1001D600003400343C3400342034003420340034FD
:1001E6003C34003420340034203400343C340034B1
:1001F600803440342034103408340434023401345A
:02400E004A2F37
:00000001FF
