:0200000089284D
:0E0006008312031322088A00210882000800DA
:1000140083120313FB01FA01F9018030F800F10C9B
:10002400F00C031C1E287408F90775080318750FD3
:10003400FA070318FB0A0310F01F26287408FA07AE
:1000440075080318750FFB07FB0CFA0CF90CF80C78
:10005400031C11287B08F3007A08F2007908F100E8
:060064007808F00008001E
:0C006A008312031395011712971208006F
:10007600831603130711831212150C309704080018
:1000860003208A110A128000840AA10A0319A20A0F
:08009600F003031D43280800DC
:10009E00831603131208013EF000F1010318F10A52
:1000AE0083122308F400F5010A200630F2007008CE
:1000BE00F4007108F500720803196A28F50CF40CA7
:1000CE00F513FF3E63280430F1007408F000710848
:1000DE0003197528F00D7010FF3E6F283030700533
:1000EE00F3007408F0007508F100F10CF00CF11338
:1000FE00F10CF00CF113700895000F309705730892
:04010E00970408004A
:10011200FF308316031388008601013083128600A4
:100122008316870183121214921063308316920091
:100132003520A0013B202008A3004F20081CBA282C
:10014200FF3020020318BA280230FB000430FC0002
:10015200BA30FD00FD0BAB28FC0BAB28FB0BAB2828
:1001620000000A302007F0007008A0007008A30009
:100172004F20881CD5282008003C0318D5280230BF
:10018200FB000430FC00BA30FD00FD0BC628FC0B5E
:10019200C628FB0BC62800000A302002F0007008B7
:1001A200A0007008A3004F201A30FC00F830FD00B8
:0E01B200FD0BD928FC0BD92800009F28DF2860
:02400E004A2F37
:00000001FF
