:020000005D2D74
:06000600000000000800EC
:0E000C00213083120313FD00FD0B0A280800AB
:10001A000F3083120313FC004730FD00FD0B132839
:0A002A00FC0B132800000000080082
:10003400FB14FB1F2428FF30F300F200F100F00052
:08004400FA0DF20CFF30080078
:0E004C00F201F101F001F801F30100300800AB
:10005A007B15FB1F37280130F300F201F101F00193
:08006A00FA0DF20CFF30080052
:08007200FA1FF2130030080030
:10007A0083120313D71B4328861244288616571B5C
:10008A004828061249280616D71A4D2886114E28DE
:10009A008615571A5228061153280615411857284B
:1000AA00061458280610861403208610D7195F28CC
:1000BA0086126028861657196428061265280616BD
:1000CA00D718692886116A28861557186E280611C6
:1000DA006F2806154118732806147428061086140A
:1000EA0003208610411C7B280D207C28062008004E
:1000FA00A0017208031D92287108F2007008F1002D
:10010A00F001A0157208031D92287108F200F1018E
:10011A00A011201672080319A0282008F302031D53
:10012A00031CA4280310F21BA828F00DF10DF20DF0
:10013A00F30B9828A4280130FC002620AB280230B3
:0E014A00FC002D20AB280430FC0039200800FA
:100158000E3083120313FD00FD0BB02800000800C9
:0E0168008312031343088A0042088200080035
:06017600FB15FF3008003C
:10017C00831203135508F2007208F100F20A5608B4
:10018C00F000D60A700884000008F00071088400A2
:10019C00700880007108840000080319D628C22852
:0601AC005508F0000800F8
:1001B20083120313FA017308031D7A147708031DCF
:1001C200FA147A0803192529033A0319F0287A1830
:1001D200ED28F61F23292129F21F2129232972083C
:1001E2008039FA00F21376088039F6137A06031979
:1001F200FE287A0803192129232977087302031993
:100202000529031C19291D297608720203190C29D4
:10021200031C19291D297508710203191329031CCE
:1002220019291D29740870020319252903181D298B
:10023200FA08031923292129FA0803192129232954
:100242000314080003100800031403150800080033
:1002520083120313FB017308031D77080319802916
:1002620072087606FA007708F3077E30031C3D29F0
:10027200F302031883294029F302031C862972081A
:10028200F8007108FC007008FD00F817F61703105B
:10029200F201F101F0011830A0007D1C5A29740806
:1002A200F00775080318750FF10776080318760F23
:1002B200F207F20CF10CF00CF80CFC0CFD0C031024
:1002C200A00B4E29F21B6A29F80DF00DF10DF20D6B
:1002D200F3037B1B701C7C29F81F7C29F00A03198D
:1002E200F10A0319F20A031D7C29F20CF10CF00C3D
:1002F200F30A03198329FA1FF21300308829013007
:100302002620882902301A20882904302D20000056
:020312000800E1
:1003140083120313F8010830FC00700DF80D740803
:10032400F80203189729F8070310F00DFC0B8F2926
:020334000800BF
:100336008312031341105508D7003D2041140800CD
:10034600B529803083120313C800C829C030C800FD
:10035600C8299430C800C829D430C800C8298030BC
:10036600C800C829831203134808013A0319A429AF
:100376004808023A0319A9294808033A0319AC297F
:100386004808043A0319AF29B2294903F00048087E
:10039600F0077008C8007008D7003D204110CB0157
:1003A6004B084A07840000080319E1294B084A074D
:1003B60084000008D5009B21CB0AD32941140800EC
:1003C600831203137408003A031DFE297508003AC8
:1003D600031DFE297608003A031DFE297708003A18
:1003E600031DFE29FF30F000FF30F1007F30F200E0
:1003F600FF30F300992A83120313770803198D2A15
:1004060073080319902A720876068039FA00F217E3
:10041600F617A0017208F8007108FC007008FD00CC
:100426007408FD027508031C750FFC027608031C90
:10043600760FF802F801FC01FD01031C292A0310BE
:10044600F20CF10CF00CF80C0130A0007708F30266
:10045600031C332A7E302007F3070318932A382A11
:100466007E302007F307031C962A1830FA07FD0D85
:10047600FC0DF80DF00DF10DF20DA00D7408F00253
:100486007508031C750FF1027608031C760FF2023D
:10049600760DA004201C512A7D145C2A7408F007EE
:1004A60075080318750FF10776080318760AF20720
:1004B6007D10FA031F307A05031D3A2A7B1B7D1C2B
:1004C600832A0310F00DF10DF20DA00D7408F00251
:1004D6007508031C750FF1027608031C760FF202ED
:1004E600760D20040139FD070318FC0A0319F80AE2
:1004F600031D832AF80CFC0CFD0CF30A0319932A3E
:10050600FA1FF8137808F2007C08F1007D08F00065
:100516000030982A0130BB20982A02302620982ADB
:0E05260004301A20982A08302D20000008000A
:1005340083120313D301D4014808CF004908D00023
:100544004A08D1004B08D2005208FF3A031DB42ACE
:100554005108FF3A031DB42A5008FF3A031DB42A78
:100564004F08FF3A031DBE2A4C08D5002330D6009D
:10057400BE200330F000932C0130CD00D11FCD2AD2
:1005840080305106F0007008D100CD0A4C08840078
:100594002D308000CC0A0030F0005206031DDC2A06
:1005A40070085106031DDC2A70085006031DDC2A5E
:1005B4004F08003A031DE52A4C08D5002130D60027
:1005C400BE20F001932C5208FF3A031DF32A510870
:1005D400003A031DF32A5008003A031DF32A4F087A
:1005E400003A031DFD2A4C08D5002730D600BE2052
:1005F4004D08F000932C0030F4000030F50000307A
:10060400F6007F30F7004F08F0005008F100510861
:10061400F2005208F300D920013003180030F00032
:1006240070080319302B4F08F0005008F1005108EE
:10063400F2005208F3000030F4000030F5002030DE
:10064400F6008230F70029217008CF007108D0002D
:100654007208D1007308D200D403FD2A0030F400DC
:100664000030F5002030F6008230F7004F08F0002B
:100674005008F1005108F2005208F300D92001306B
:10068400031C0030F00070080319632B4F08F000BE
:100694005008F1005108F2005208F300CD30F40084
:1006A400CC30F5004C30F6007B30F700292170087F
:1006B400CF007108D0007208D1007308D200D40AA8
:1006C400302BFF304F05F800FF305005F9007F3024
:1006D4005105FA0000305205FB007808F40079084F
:1006E400F5007A08F6007B08F700F40DF50DF60D19
:1006F400F70D741000304F05F00000305005F10084
:1007040000305105F200FF305205F3007008CF00AD
:100714007108D0007208D1007308D20074084F0425
:10072400F00075085004F10076085104F2007708CF
:100734005204F3007008CF007108D0007208D10091
:100744007308D2007F305202F0007008CE000130EE
:10075400D2007008F4004F08F0005008F10051086E
:10076400F2005208F30074080319BF2BF00DF10DC9
:10077400F20DF30D7010FF3EB62B7008CF00710818
:10078400D0007208D1007308D2005208303EF00045
:100794004C08840070088000CC0A80305406F000B5
:1007A4008030013A7002031CE02B8030063AF000DE
:1007B400803054067002031CE02BE72B4C088400A5
:1007C4002E308000CC0A0130D3000630CE004E0813
:1007D400003A0319452CD2014F08F0005008F100EB
:1007E4005108F2005208F300F00DF10DF20DF30D73
:1007F4007010F00DF10DF20DF30D70104F08F007AD
:1008040050080318500FF10751080318510FF2074D
:1008140052080318520FF3077008CF007108D00074
:100824007208D1007308D2004F08F0005008F1009C
:100834005108F2005208F300F00DF10DF20DF30D22
:1008440070107008CF007108D0007208D1007308CE
:10085400D2005208303EF0004C088400700880003A
:10086400CC0A5308003A031D432CD4035408003A1D
:10087400031D432C4C0884002E308000CC0A013028
:10088400D300CE03E92BFF304C0784000008303A34
:10089400031D4E2CCC03452CFF304C07840000086C
:1008A4002E3A031D562CCC035408003A03198F2CFE
:1008B4004C08840065308000CC0A80305406F00077
:1008C4008030003A700203186F2C4C0884002D30DD
:1008D4008000CC0A5408003CD4005408CE005408CC
:1008E400093C0318812C0A30F4004E08F0008A21D8
:1008F4003030F0074C08840070088000CC0A0A30BD
:10090400F4004E08F0008A217808F0003030F00737
:100914004C08840070088000CC0A4C0884008001D4
:04092400F0010800D6
:10092800831203137008F8007108F000F101F20156
:10093800F301FB01FC019630F300FA017008F100A5
:0C0948007808F000F801F2017D200800A2
:10095400B4208A110A128000840AC20A0319C30A45
:08096400F003031DAA2C08009A
:10096C00831203139F01C0309F0483161F179F1718
:10097C0083124808F000F00D7010F00D7010F00D9F
:10098C00701070089F041F14AC201F151F1DD02C55
:10099C000000CC2C1F101E08F100F00183161E085D
:0809AC00F0040030F104080022
:1009B400831603138610061006118611061286127A
:1009C40083128610061086120612861106110D2057
:1009D4000D200D20861506158614032086100D2083
:1009E4008614032086100D208614032086100D2003
:1009F40006118614032086100D2086140320861009
:100A0400861186168614032086100D20861206157C
:100A140086140320861006118614032086100D20E8
:100A240086140320861006158614032086100D20D4
:100A340006118614032086108616061686150615DA
:0C0A44008614032086100D2041140800C9
:100A50003A2D803083120313C8004D2DC030C800DA
:100A60004D2D9430C8004D2DD430C8004D2D803010
:100A7000C8004D2D831203134808013A0319292D8C
:100A80004808023A03192E2D4808033A0319312D5C
:100A90004808043A0319342D372D4903F00048085B
:100AA000F0077008C80041147008D7003D204110BD
:0A0AB0004A08D7003D204114080059
:100ABA00DA25831603138601FF30850080309F00F4
:100ACA00DA240130D7003D200C30D7003D20C80180
:100ADA00B6249424F630F4002830F5001C30F600D1
:100AEA008130F70029210030F4000030F500203071
:100AFA00F6008230F700E3217008C4007108C500CF
:100B0A007208C6007308C7000130C8000130C90066
:100B1A003B30CA00A3214408C8004508C90046085A
:100B2A00CA004708CB002B30CC009A220130C800FB
:100B3A000630C9002B30CA00A3210130C8000F308B
:100B4A00C900DF30CA0028250130C8001030C900AA
:0A0B5A00D730CA0028256C2DB12DFC
:100BB40021308400203083120313F000B730C200C8
:080BC4000530C300AA2408005B
:040B6E0030340034EB
:080B72004E3461344E340034AE
:080B7A0049344E3446340034C6
:100B820000340034003400340034003400340034C3
:100B920000340034003400340034003400340034B3
:0C0BA200543465346D3470343D3400343C
:040BAE004334003498
:02400E004A2F37
:00000001FF
